:080000000000000000000000F8
:080001000001000100000000F5
:080002000002000200000000F2
:080003000003000300000000EF
:080004000004000400000000EC
:080005000005000500000000E9
:080006000006000600000000E6
:080007000007000700000000E3
:080008000008000800000000E0
:080009000009000900000000DD
:08000A00000A000A00000000DA
:08000B00000B000B00000000D7
:08000C00000C000C00000000D4
:08000D00000D000D00000000D1
:08000E00000E000E00000000CE
:08000F00000F000F00000000CB
:080010000010001000000000C8
:080011000011001100000000C5
:080012000012001200000000C2
:080013000013001300000000BF
:080014000014001400000000BC
:080015000015001500000000B9
:080016000016001600000000B6
:080017000017001700000000B3
:080018000018001800000000B0
:080019000019001900000000AD
:08001A00001A001A00000000AA
:08001B00001B001B00000000A7
:08001C00001C001C00000000A4
:08001D00001D001D00000000A1
:08001E00001E001E000000009E
:08001F00001F001F000000009B
:08002000002000200000000098
:08002100002100210000000095
:08002200002200220000000092
:0800230000230023000000008F
:0800240000240024000000008C
:08002500002500250000000089
:08002600002600260000000086
:08002700002700270000000083
:08002800002800280000000080
:0800290000290029000000007D
:08002A00002A002A000000007A
:08002B00002B002B0000000077
:08002C00002C002C0000000074
:08002D00002D002D0000000071
:08002E00002E002E000000006E
:08002F00002F002F000000006B
:08003000003000300000000068
:08003100003100310000000065
:08003200003200320000000062
:0800330000330033000000005F
:0800340000340034000000005C
:08003500003500350000000059
:08003600003600360000000056
:08003700003700370000000053
:08003800003800380000000050
:0800390000390039000000004D
:08003A00003A003A000000004A
:08003B00003B003B0000000047
:08003C00003C003C0000000044
:08003D00003D003D0000000041
:08003E00003E003E000000003E
:08003F00003F003F000000003B
:08004000004000400000000038
:08004100004100410000000035
:08004200004200420000000032
:0800430000430043000000002F
:0800440000440044000000002C
:08004500004500450000000029
:08004600004600460000000026
:08004700004700470000000023
:08004800004800480000000020
:0800490000490049000000001D
:08004A00004A004A000000001A
:08004B00004B004B0000000017
:08004C00004C004C0000000014
:08004D00004D004D0000000011
:08004E00004E004E000000000E
:08004F00004F004F000000000B
:08005000005000500000000008
:08005100005100510000000005
:08005200005200520000000002
:080053000053005300000000FF
:080054000054005400000000FC
:080055000055005500000000F9
:080056000056005600000000F6
:080057000057005700000000F3
:080058000058005800000000F0
:080059000059005900000000ED
:08005A00005A005A00000000EA
:08005B00005B005B00000000E7
:08005C00005C005C00000000E4
:08005D00005D005D00000000E1
:08005E00005E005E00000000DE
:08005F00005F005F00000000DB
:080060000060006000000000D8
:080061000061006100000000D5
:080062000062006200000000D2
:080063000063006300000000CF
:080064000064006400000000CC
:080065000065006500000000C9
:080066000066006600000000C6
:080067000067006700000000C3
:080068000068006800000000C0
:080069000069006900000000BD
:08006A00006A006A00000000BA
:08006B00006B006B00000000B7
:08006C00006C006C00000000B4
:08006D00006D006D00000000B1
:08006E00006E006E00000000AE
:08006F00006F006F00000000AB
:080070000070007000000000A8
:080071000071007100000000A5
:080072000072007200000000A2
:0800730000730073000000009F
:0800740000740074000000009C
:08007500007500750000000099
:08007600007600760000000096
:08007700007700770000000093
:08007800007800780000000090
:0800790000790079000000008D
:08007A00007A007A000000008A
:08007B00007B007B0000000087
:08007C00007C007C0000000084
:08007D00007D007D0000000081
:08007E00007E007E000000007E
:08007F00007F007F000000007B
:08008000008000800000000078
:08008100008100810000000075
:08008200008200820000000072
:0800830000830083000000006F
:0800840000840084000000006C
:08008500008500850000000069
:08008600008600860000000066
:08008700008700870000000063
:08008800008800880000000060
:0800890000890089000000005D
:08008A00008A008A000000005A
:08008B00008B008B0000000057
:08008C00008C008C0000000054
:08008D00008D008D0000000051
:08008E00008E008E000000004E
:08008F00008F008F000000004B
:08009000009000900000000048
:08009100009100910000000045
:08009200009200920000000042
:0800930000930093000000003F
:0800940000940094000000003C
:08009500009500950000000039
:08009600009600960000000036
:08009700009700970000000033
:08009800009800980000000030
:0800990000990099000000002D
:08009A00009A009A000000002A
:08009B00009B009B0000000027
:08009C00009C009C0000000024
:08009D00009D009D0000000021
:08009E00009E009E000000001E
:08009F00009F009F000000001B
:0800A00000A000A00000000018
:0800A10000A100A10000000015
:0800A20000A200A20000000012
:0800A30000A300A3000000000F
:0800A40000A400A4000000000C
:0800A50000A500A50000000009
:0800A60000A600A60000000006
:0800A70000A700A70000000003
:0800A80000A800A80000000000
:0800A90000A900A900000000FD
:0800AA0000AA00AA00000000FA
:0800AB0000AB00AB00000000F7
:0800AC0000AC00AC00000000F4
:0800AD0000AD00AD00000000F1
:0800AE0000AE00AE00000000EE
:0800AF0000AF00AF00000000EB
:0800B00000B000B000000000E8
:0800B10000B100B100000000E5
:0800B20000B200B200000000E2
:0800B30000B300B300000000DF
:0800B40000B400B400000000DC
:0800B50000B500B500000000D9
:0800B60000B600B600000000D6
:0800B70000B700B700000000D3
:0800B80000B800B800000000D0
:0800B90000B900B900000000CD
:0800BA0000BA00BA00000000CA
:0800BB0000BB00BB00000000C7
:0800BC0000BC00BC00000000C4
:0800BD0000BD00BD00000000C1
:0800BE0000BE00BE00000000BE
:0800BF0000BF00BF00000000BB
:0800C00000C000C000000000B8
:0800C10000C100C100000000B5
:0800C20000C200C200000000B2
:0800C30000C300C300000000AF
:0800C40000C400C400000000AC
:0800C50000C500C500000000A9
:0800C60000C600C600000000A6
:0800C70000C700C700000000A3
:0800C80000C800C800000000A0
:0800C90000C900C9000000009D
:0800CA0000CA00CA000000009A
:0800CB0000CB00CB0000000097
:0800CC0000CC00CC0000000094
:0800CD0000CD00CD0000000091
:0800CE0000CE00CE000000008E
:0800CF0000CF00CF000000008B
:0800D00000D000D00000000088
:0800D10000D100D10000000085
:0800D20000D200D20000000082
:0800D30000D300D3000000007F
:0800D40000D400D4000000007C
:0800D50000D500D50000000079
:0800D60000D600D60000000076
:0800D70000D700D70000000073
:0800D80000D800D80000000070
:0800D90000D900D9000000006D
:0800DA0000DA00DA000000006A
:0800DB0000DB00DB0000000067
:0800DC0000DC00DC0000000064
:0800DD0000DD00DD0000000061
:0800DE0000DE00DE000000005E
:0800DF0000DF00DF000000005B
:0800E00000E000E00000000058
:0800E10000E100E10000000055
:0800E20000E200E20000000052
:0800E30000E300E3000000004F
:0800E40000E400E4000000004C
:0800E50000E500E50000000049
:0800E60000E600E60000000046
:0800E70000E700E70000000043
:0800E80000E800E80000000040
:0800E90000E900E9000000003D
:0800EA0000EA00EA000000003A
:0800EB0000EB00EB0000000037
:0800EC0000EC00EC0000000034
:0800ED0000ED00ED0000000031
:0800EE0000EE00EE000000002E
:0800EF0000EF00EF000000002B
:0800F00000F000F00000000028
:0800F10000F100F10000000025
:0800F20000F200F20000000022
:0800F30000F300F3000000001F
:0800F40000F400F4000000001C
:0800F50000F500F50000000019
:0800F60000F600F60000000016
:0800F70000F700F70000000013
:0800F80000F800F80000000010
:0800F90000F900F9000000000D
:0800FA0000FA00FA000000000A
:0800FB0000FB00FB0000000007
:0800FC0000FC00FC0000000004
:0800FD0000FD00FD0000000001
:0800FE0000FE00FE00000000FE
:0800FF0000FF00FF00000000FB
:080100000100010000000000F5
:080101000101010100000000F2
:080102000102010200000000EF
:080103000103010300000000EC
:080104000104010400000000E9
:080105000105010500000000E6
:080106000106010600000000E3
:080107000107010700000000E0
:080108000108010800000000DD
:080109000109010900000000DA
:08010A00010A010A00000000D7
:08010B00010B010B00000000D4
:08010C00010C010C00000000D1
:08010D00010D010D00000000CE
:08010E00010E010E00000000CB
:08010F00010F010F00000000C8
:080110000110011000000000C5
:080111000111011100000000C2
:080112000112011200000000BF
:080113000113011300000000BC
:080114000114011400000000B9
:080115000115011500000000B6
:080116000116011600000000B3
:080117000117011700000000B0
:080118000118011800000000AD
:080119000119011900000000AA
:08011A00011A011A00000000A7
:08011B00011B011B00000000A4
:08011C00011C011C00000000A1
:08011D00011D011D000000009E
:08011E00011E011E000000009B
:08011F00011F011F0000000098
:08012000012001200000000095
:08012100012101210000000092
:0801220001220122000000008F
:0801230001230123000000008C
:08012400012401240000000089
:08012500012501250000000086
:08012600012601260000000083
:08012700012701270000000080
:0801280001280128000000007D
:0801290001290129000000007A
:08012A00012A012A0000000077
:08012B00012B012B0000000074
:08012C00012C012C0000000071
:08012D00012D012D000000006E
:08012E00012E012E000000006B
:08012F00012F012F0000000068
:08013000013001300000000065
:08013100013101310000000062
:0801320001320132000000005F
:0801330001330133000000005C
:08013400013401340000000059
:08013500013501350000000056
:08013600013601360000000053
:08013700013701370000000050
:0801380001380138000000004D
:0801390001390139000000004A
:08013A00013A013A0000000047
:08013B00013B013B0000000044
:08013C00013C013C0000000041
:08013D00013D013D000000003E
:08013E00013E013E000000003B
:08013F00013F013F0000000038
:08014000014001400000000035
:08014100014101410000000032
:0801420001420142000000002F
:0801430001430143000000002C
:08014400014401440000000029
:08014500014501450000000026
:08014600014601460000000023
:08014700014701470000000020
:0801480001480148000000001D
:0801490001490149000000001A
:08014A00014A014A0000000017
:08014B00014B014B0000000014
:08014C00014C014C0000000011
:08014D00014D014D000000000E
:08014E00014E014E000000000B
:08014F00014F014F0000000008
:08015000015001500000000005
:08015100015101510000000002
:080152000152015200000000FF
:080153000153015300000000FC
:080154000154015400000000F9
:080155000155015500000000F6
:080156000156015600000000F3
:080157000157015700000000F0
:080158000158015800000000ED
:080159000159015900000000EA
:08015A00015A015A00000000E7
:08015B00015B015B00000000E4
:08015C00015C015C00000000E1
:08015D00015D015D00000000DE
:08015E00015E015E00000000DB
:08015F00015F015F00000000D8
:080160000160016000000000D5
:080161000161016100000000D2
:080162000162016200000000CF
:080163000163016300000000CC
:080164000164016400000000C9
:080165000165016500000000C6
:080166000166016600000000C3
:080167000167016700000000C0
:080168000168016800000000BD
:080169000169016900000000BA
:08016A00016A016A00000000B7
:08016B00016B016B00000000B4
:08016C00016C016C00000000B1
:08016D00016D016D00000000AE
:08016E00016E016E00000000AB
:08016F00016F016F00000000A8
:080170000170017000000000A5
:080171000171017100000000A2
:0801720001720172000000009F
:0801730001730173000000009C
:08017400017401740000000099
:08017500017501750000000096
:08017600017601760000000093
:08017700017701770000000090
:0801780001780178000000008D
:0801790001790179000000008A
:08017A00017A017A0000000087
:08017B00017B017B0000000084
:08017C00017C017C0000000081
:08017D00017D017D000000007E
:08017E00017E017E000000007B
:08017F00017F017F0000000078
:08018000018001800000000075
:08018100018101810000000072
:0801820001820182000000006F
:0801830001830183000000006C
:08018400018401840000000069
:08018500018501850000000066
:08018600018601860000000063
:08018700018701870000000060
:0801880001880188000000005D
:0801890001890189000000005A
:08018A00018A018A0000000057
:08018B00018B018B0000000054
:08018C00018C018C0000000051
:08018D00018D018D000000004E
:08018E00018E018E000000004B
:08018F00018F018F0000000048
:08019000019001900000000045
:08019100019101910000000042
:0801920001920192000000003F
:0801930001930193000000003C
:08019400019401940000000039
:08019500019501950000000036
:08019600019601960000000033
:08019700019701970000000030
:0801980001980198000000002D
:0801990001990199000000002A
:08019A00019A019A0000000027
:08019B00019B019B0000000024
:08019C00019C019C0000000021
:08019D00019D019D000000001E
:08019E00019E019E000000001B
:08019F00019F019F0000000018
:0801A00001A001A00000000015
:0801A10001A101A10000000012
:0801A20001A201A2000000000F
:0801A30001A301A3000000000C
:0801A40001A401A40000000009
:0801A50001A501A50000000006
:0801A60001A601A60000000003
:0801A70001A701A70000000000
:0801A80001A801A800000000FD
:0801A90001A901A900000000FA
:0801AA0001AA01AA00000000F7
:0801AB0001AB01AB00000000F4
:0801AC0001AC01AC00000000F1
:0801AD0001AD01AD00000000EE
:0801AE0001AE01AE00000000EB
:0801AF0001AF01AF00000000E8
:0801B00001B001B000000000E5
:0801B10001B101B100000000E2
:0801B20001B201B200000000DF
:0801B30001B301B300000000DC
:0801B40001B401B400000000D9
:0801B50001B501B500000000D6
:0801B60001B601B600000000D3
:0801B70001B701B700000000D0
:0801B80001B801B800000000CD
:0801B90001B901B900000000CA
:0801BA0001BA01BA00000000C7
:0801BB0001BB01BB00000000C4
:0801BC0001BC01BC00000000C1
:0801BD0001BD01BD00000000BE
:0801BE0001BE01BE00000000BB
:0801BF0001BF01BF00000000B8
:0801C00001C001C000000000B5
:0801C10001C101C100000000B2
:0801C20001C201C200000000AF
:0801C30001C301C300000000AC
:0801C40001C401C400000000A9
:0801C50001C501C500000000A6
:0801C60001C601C600000000A3
:0801C70001C701C700000000A0
:0801C80001C801C8000000009D
:0801C90001C901C9000000009A
:0801CA0001CA01CA0000000097
:0801CB0001CB01CB0000000094
:0801CC0001CC01CC0000000091
:0801CD0001CD01CD000000008E
:0801CE0001CE01CE000000008B
:0801CF0001CF01CF0000000088
:0801D00001D001D00000000085
:0801D10001D101D10000000082
:0801D20001D201D2000000007F
:0801D30001D301D3000000007C
:0801D40001D401D40000000079
:0801D50001D501D50000000076
:0801D60001D601D60000000073
:0801D70001D701D70000000070
:0801D80001D801D8000000006D
:0801D90001D901D9000000006A
:0801DA0001DA01DA0000000067
:0801DB0001DB01DB0000000064
:0801DC0001DC01DC0000000061
:0801DD0001DD01DD000000005E
:0801DE0001DE01DE000000005B
:0801DF0001DF01DF0000000058
:0801E00001E001E00000000055
:0801E10001E101E10000000052
:0801E20001E201E2000000004F
:0801E30001E301E3000000004C
:0801E40001E401E40000000049
:0801E50001E501E50000000046
:0801E60001E601E60000000043
:0801E70001E701E70000000040
:0801E80001E801E8000000003D
:0801E90001E901E9000000003A
:0801EA0001EA01EA0000000037
:0801EB0001EB01EB0000000034
:0801EC0001EC01EC0000000031
:0801ED0001ED01ED000000002E
:0801EE0001EE01EE000000002B
:0801EF0001EF01EF0000000028
:0801F00001F001F00000000025
:0801F10001F101F10000000022
:0801F20001F201F2000000001F
:0801F30001F301F3000000001C
:0801F40001F401F40000000019
:0801F50001F501F50000000016
:0801F60001F601F60000000013
:0801F70001F701F70000000010
:0801F80001F801F8000000000D
:0801F90001F901F9000000000A
:0801FA0001FA01FA0000000007
:0801FB0001FB01FB0000000004
:0801FC0001FC01FC0000000001
:0801FD0001FD01FD00000000FE
:0801FE0001FE01FE00000000FB
:0801FF0001FF01FF00000000F8
:080200000200020000000000F2
:080201000201020100000000EF
:080202000202020200000000EC
:080203000203020300000000E9
:080204000204020400000000E6
:080205000205020500000000E3
:080206000206020600000000E0
:080207000207020700000000DD
:080208000208020800000000DA
:080209000209020900000000D7
:08020A00020A020A00000000D4
:08020B00020B020B00000000D1
:08020C00020C020C00000000CE
:08020D00020D020D00000000CB
:08020E00020E020E00000000C8
:08020F00020F020F00000000C5
:080210000210021000000000C2
:080211000211021100000000BF
:080212000212021200000000BC
:080213000213021300000000B9
:080214000214021400000000B6
:080215000215021500000000B3
:080216000216021600000000B0
:080217000217021700000000AD
:080218000218021800000000AA
:080219000219021900000000A7
:08021A00021A021A00000000A4
:08021B00021B021B00000000A1
:08021C00021C021C000000009E
:08021D00021D021D000000009B
:08021E00021E021E0000000098
:08021F00021F021F0000000095
:08022000022002200000000092
:0802210002210221000000008F
:0802220002220222000000008C
:08022300022302230000000089
:08022400022402240000000086
:08022500022502250000000083
:08022600022602260000000080
:0802270002270227000000007D
:0802280002280228000000007A
:08022900022902290000000077
:08022A00022A022A0000000074
:08022B00022B022B0000000071
:08022C00022C022C000000006E
:08022D00022D022D000000006B
:08022E00022E022E0000000068
:08022F00022F022F0000000065
:08023000023002300000000062
:0802310002310231000000005F
:0802320002320232000000005C
:08023300023302330000000059
:08023400023402340000000056
:08023500023502350000000053
:08023600023602360000000050
:0802370002370237000000004D
:0802380002380238000000004A
:08023900023902390000000047
:08023A00023A023A0000000044
:08023B00023B023B0000000041
:08023C00023C023C000000003E
:08023D00023D023D000000003B
:08023E00023E023E0000000038
:08023F00023F023F0000000035
:08024000024002400000000032
:0802410002410241000000002F
:0802420002420242000000002C
:08024300024302430000000029
:08024400024402440000000026
:08024500024502450000000023
:08024600024602460000000020
:0802470002470247000000001D
:0802480002480248000000001A
:08024900024902490000000017
:08024A00024A024A0000000014
:08024B00024B024B0000000011
:08024C00024C024C000000000E
:08024D00024D024D000000000B
:08024E00024E024E0000000008
:08024F00024F024F0000000005
:08025000025002500000000002
:080251000251025100000000FF
:080252000252025200000000FC
:080253000253025300000000F9
:080254000254025400000000F6
:080255000255025500000000F3
:080256000256025600000000F0
:080257000257025700000000ED
:080258000258025800000000EA
:080259000259025900000000E7
:08025A00025A025A00000000E4
:08025B00025B025B00000000E1
:08025C00025C025C00000000DE
:08025D00025D025D00000000DB
:08025E00025E025E00000000D8
:08025F00025F025F00000000D5
:080260000260026000000000D2
:080261000261026100000000CF
:080262000262026200000000CC
:080263000263026300000000C9
:080264000264026400000000C6
:080265000265026500000000C3
:080266000266026600000000C0
:080267000267026700000000BD
:080268000268026800000000BA
:080269000269026900000000B7
:08026A00026A026A00000000B4
:08026B00026B026B00000000B1
:08026C00026C026C00000000AE
:08026D00026D026D00000000AB
:08026E00026E026E00000000A8
:08026F00026F026F00000000A5
:080270000270027000000000A2
:0802710002710271000000009F
:0802720002720272000000009C
:08027300027302730000000099
:08027400027402740000000096
:08027500027502750000000093
:08027600027602760000000090
:0802770002770277000000008D
:0802780002780278000000008A
:08027900027902790000000087
:08027A00027A027A0000000084
:08027B00027B027B0000000081
:08027C00027C027C000000007E
:08027D00027D027D000000007B
:08027E00027E027E0000000078
:08027F00027F027F0000000075
:08028000028002800000000072
:0802810002810281000000006F
:0802820002820282000000006C
:08028300028302830000000069
:08028400028402840000000066
:08028500028502850000000063
:08028600028602860000000060
:0802870002870287000000005D
:0802880002880288000000005A
:08028900028902890000000057
:08028A00028A028A0000000054
:08028B00028B028B0000000051
:08028C00028C028C000000004E
:08028D00028D028D000000004B
:08028E00028E028E0000000048
:08028F00028F028F0000000045
:08029000029002900000000042
:0802910002910291000000003F
:0802920002920292000000003C
:08029300029302930000000039
:08029400029402940000000036
:08029500029502950000000033
:08029600029602960000000030
:0802970002970297000000002D
:0802980002980298000000002A
:08029900029902990000000027
:08029A00029A029A0000000024
:08029B00029B029B0000000021
:08029C00029C029C000000001E
:08029D00029D029D000000001B
:08029E00029E029E0000000018
:08029F00029F029F0000000015
:0802A00002A002A00000000012
:0802A10002A102A1000000000F
:0802A20002A202A2000000000C
:0802A30002A302A30000000009
:0802A40002A402A40000000006
:0802A50002A502A50000000003
:0802A60002A602A60000000000
:0802A70002A702A700000000FD
:0802A80002A802A800000000FA
:0802A90002A902A900000000F7
:0802AA0002AA02AA00000000F4
:0802AB0002AB02AB00000000F1
:0802AC0002AC02AC00000000EE
:0802AD0002AD02AD00000000EB
:0802AE0002AE02AE00000000E8
:0802AF0002AF02AF00000000E5
:0802B00002B002B000000000E2
:0802B10002B102B100000000DF
:0802B20002B202B200000000DC
:0802B30002B302B300000000D9
:0802B40002B402B400000000D6
:0802B50002B502B500000000D3
:0802B60002B602B600000000D0
:0802B70002B702B700000000CD
:0802B80002B802B800000000CA
:0802B90002B902B900000000C7
:0802BA0002BA02BA00000000C4
:0802BB0002BB02BB00000000C1
:0802BC0002BC02BC00000000BE
:0802BD0002BD02BD00000000BB
:0802BE0002BE02BE00000000B8
:0802BF0002BF02BF00000000B5
:0802C00002C002C000000000B2
:0802C10002C102C100000000AF
:0802C20002C202C200000000AC
:0802C30002C302C300000000A9
:0802C40002C402C400000000A6
:0802C50002C502C500000000A3
:0802C60002C602C600000000A0
:0802C70002C702C7000000009D
:0802C80002C802C8000000009A
:0802C90002C902C90000000097
:0802CA0002CA02CA0000000094
:0802CB0002CB02CB0000000091
:0802CC0002CC02CC000000008E
:0802CD0002CD02CD000000008B
:0802CE0002CE02CE0000000088
:0802CF0002CF02CF0000000085
:0802D00002D002D00000000082
:0802D10002D102D1000000007F
:0802D20002D202D2000000007C
:0802D30002D302D30000000079
:0802D40002D402D40000000076
:0802D50002D502D50000000073
:0802D60002D602D60000000070
:0802D70002D702D7000000006D
:0802D80002D802D8000000006A
:0802D90002D902D90000000067
:0802DA0002DA02DA0000000064
:0802DB0002DB02DB0000000061
:0802DC0002DC02DC000000005E
:0802DD0002DD02DD000000005B
:0802DE0002DE02DE0000000058
:0802DF0002DF02DF0000000055
:0802E00002E002E00000000052
:0802E10002E102E1000000004F
:0802E20002E202E2000000004C
:0802E30002E302E30000000049
:0802E40002E402E40000000046
:0802E50002E502E50000000043
:0802E60002E602E60000000040
:0802E70002E702E7000000003D
:0802E80002E802E8000000003A
:0802E90002E902E90000000037
:0802EA0002EA02EA0000000034
:0802EB0002EB02EB0000000031
:0802EC0002EC02EC000000002E
:0802ED0002ED02ED000000002B
:0802EE0002EE02EE0000000028
:0802EF0002EF02EF0000000025
:0802F00002F002F00000000022
:0802F10002F102F1000000001F
:0802F20002F202F2000000001C
:0802F30002F302F30000000019
:0802F40002F402F40000000016
:0802F50002F502F50000000013
:0802F60002F602F60000000010
:0802F70002F702F7000000000D
:0802F80002F802F8000000000A
:0802F90002F902F90000000007
:0802FA0002FA02FA0000000004
:0802FB0002FB02FB0000000001
:0802FC0002FC02FC00000000FE
:0802FD0002FD02FD00000000FB
:0802FE0002FE02FE00000000F8
:0802FF0002FF02FF00000000F5
:080300000300030000000000EF
:080301000301030100000000EC
:080302000302030200000000E9
:080303000303030300000000E6
:080304000304030400000000E3
:080305000305030500000000E0
:080306000306030600000000DD
:080307000307030700000000DA
:080308000308030800000000D7
:080309000309030900000000D4
:08030A00030A030A00000000D1
:08030B00030B030B00000000CE
:08030C00030C030C00000000CB
:08030D00030D030D00000000C8
:08030E00030E030E00000000C5
:08030F00030F030F00000000C2
:080310000310031000000000BF
:080311000311031100000000BC
:080312000312031200000000B9
:080313000313031300000000B6
:080314000314031400000000B3
:080315000315031500000000B0
:080316000316031600000000AD
:080317000317031700000000AA
:080318000318031800000000A7
:080319000319031900000000A4
:08031A00031A031A00000000A1
:08031B00031B031B000000009E
:08031C00031C031C000000009B
:08031D00031D031D0000000098
:08031E00031E031E0000000095
:08031F00031F031F0000000092
:0803200003200320000000008F
:0803210003210321000000008C
:08032200032203220000000089
:08032300032303230000000086
:08032400032403240000000083
:08032500032503250000000080
:0803260003260326000000007D
:0803270003270327000000007A
:08032800032803280000000077
:08032900032903290000000074
:08032A00032A032A0000000071
:08032B00032B032B000000006E
:08032C00032C032C000000006B
:08032D00032D032D0000000068
:08032E00032E032E0000000065
:08032F00032F032F0000000062
:0803300003300330000000005F
:0803310003310331000000005C
:08033200033203320000000059
:08033300033303330000000056
:08033400033403340000000053
:08033500033503350000000050
:0803360003360336000000004D
:0803370003370337000000004A
:08033800033803380000000047
:08033900033903390000000044
:08033A00033A033A0000000041
:08033B00033B033B000000003E
:08033C00033C033C000000003B
:08033D00033D033D0000000038
:08033E00033E033E0000000035
:08033F00033F033F0000000032
:0803400003400340000000002F
:0803410003410341000000002C
:08034200034203420000000029
:08034300034303430000000026
:08034400034403440000000023
:08034500034503450000000020
:0803460003460346000000001D
:0803470003470347000000001A
:08034800034803480000000017
:08034900034903490000000014
:08034A00034A034A0000000011
:08034B00034B034B000000000E
:08034C00034C034C000000000B
:08034D00034D034D0000000008
:08034E00034E034E0000000005
:08034F00034F034F0000000002
:080350000350035000000000FF
:080351000351035100000000FC
:080352000352035200000000F9
:080353000353035300000000F6
:080354000354035400000000F3
:080355000355035500000000F0
:080356000356035600000000ED
:080357000357035700000000EA
:080358000358035800000000E7
:080359000359035900000000E4
:08035A00035A035A00000000E1
:08035B00035B035B00000000DE
:08035C00035C035C00000000DB
:08035D00035D035D00000000D8
:08035E00035E035E00000000D5
:08035F00035F035F00000000D2
:080360000360036000000000CF
:080361000361036100000000CC
:080362000362036200000000C9
:080363000363036300000000C6
:080364000364036400000000C3
:080365000365036500000000C0
:080366000366036600000000BD
:080367000367036700000000BA
:080368000368036800000000B7
:080369000369036900000000B4
:08036A00036A036A00000000B1
:08036B00036B036B00000000AE
:08036C00036C036C00000000AB
:08036D00036D036D00000000A8
:08036E00036E036E00000000A5
:08036F00036F036F00000000A2
:0803700003700370000000009F
:0803710003710371000000009C
:08037200037203720000000099
:08037300037303730000000096
:08037400037403740000000093
:08037500037503750000000090
:0803760003760376000000008D
:0803770003770377000000008A
:08037800037803780000000087
:08037900037903790000000084
:08037A00037A037A0000000081
:08037B00037B037B000000007E
:08037C00037C037C000000007B
:08037D00037D037D0000000078
:08037E00037E037E0000000075
:08037F00037F037F0000000072
:0803800003800380000000006F
:0803810003810381000000006C
:08038200038203820000000069
:08038300038303830000000066
:08038400038403840000000063
:08038500038503850000000060
:0803860003860386000000005D
:0803870003870387000000005A
:08038800038803880000000057
:08038900038903890000000054
:08038A00038A038A0000000051
:08038B00038B038B000000004E
:08038C00038C038C000000004B
:08038D00038D038D0000000048
:08038E00038E038E0000000045
:08038F00038F038F0000000042
:0803900003900390000000003F
:0803910003910391000000003C
:08039200039203920000000039
:08039300039303930000000036
:08039400039403940000000033
:08039500039503950000000030
:0803960003960396000000002D
:0803970003970397000000002A
:08039800039803980000000027
:08039900039903990000000024
:08039A00039A039A0000000021
:08039B00039B039B000000001E
:08039C00039C039C000000001B
:08039D00039D039D0000000018
:08039E00039E039E0000000015
:08039F00039F039F0000000012
:0803A00003A003A0000000000F
:0803A10003A103A1000000000C
:0803A20003A203A20000000009
:0803A30003A303A30000000006
:0803A40003A403A40000000003
:0803A50003A503A50000000000
:0803A60003A603A600000000FD
:0803A70003A703A700000000FA
:0803A80003A803A800000000F7
:0803A90003A903A900000000F4
:0803AA0003AA03AA00000000F1
:0803AB0003AB03AB00000000EE
:0803AC0003AC03AC00000000EB
:0803AD0003AD03AD00000000E8
:0803AE0003AE03AE00000000E5
:0803AF0003AF03AF00000000E2
:0803B00003B003B000000000DF
:0803B10003B103B100000000DC
:0803B20003B203B200000000D9
:0803B30003B303B300000000D6
:0803B40003B403B400000000D3
:0803B50003B503B500000000D0
:0803B60003B603B600000000CD
:0803B70003B703B700000000CA
:0803B80003B803B800000000C7
:0803B90003B903B900000000C4
:0803BA0003BA03BA00000000C1
:0803BB0003BB03BB00000000BE
:0803BC0003BC03BC00000000BB
:0803BD0003BD03BD00000000B8
:0803BE0003BE03BE00000000B5
:0803BF0003BF03BF00000000B2
:0803C00003C003C000000000AF
:0803C10003C103C100000000AC
:0803C20003C203C200000000A9
:0803C30003C303C300000000A6
:0803C40003C403C400000000A3
:0803C50003C503C500000000A0
:0803C60003C603C6000000009D
:0803C70003C703C7000000009A
:0803C80003C803C80000000097
:0803C90003C903C90000000094
:0803CA0003CA03CA0000000091
:0803CB0003CB03CB000000008E
:0803CC0003CC03CC000000008B
:0803CD0003CD03CD0000000088
:0803CE0003CE03CE0000000085
:0803CF0003CF03CF0000000082
:0803D00003D003D0000000007F
:0803D10003D103D1000000007C
:0803D20003D203D20000000079
:0803D30003D303D30000000076
:0803D40003D403D40000000073
:0803D50003D503D50000000070
:0803D60003D603D6000000006D
:0803D70003D703D7000000006A
:0803D80003D803D80000000067
:0803D90003D903D90000000064
:0803DA0003DA03DA0000000061
:0803DB0003DB03DB000000005E
:0803DC0003DC03DC000000005B
:0803DD0003DD03DD0000000058
:0803DE0003DE03DE0000000055
:0803DF0003DF03DF0000000052
:0803E00003E003E0000000004F
:0803E10003E103E1000000004C
:0803E20003E203E20000000049
:0803E30003E303E30000000046
:0803E40003E403E40000000043
:0803E50003E503E50000000040
:0803E60003E603E6000000003D
:0803E70003E703E7000000003A
:0803E80003E803E80000000037
:0803E90003E903E90000000034
:0803EA0003EA03EA0000000031
:0803EB0003EB03EB000000002E
:0803EC0003EC03EC000000002B
:0803ED0003ED03ED0000000028
:0803EE0003EE03EE0000000025
:0803EF0003EF03EF0000000022
:0803F00003F003F0000000001F
:0803F10003F103F1000000001C
:0803F20003F203F20000000019
:0803F30003F303F30000000016
:0803F40003F403F40000000013
:0803F50003F503F50000000010
:0803F60003F603F6000000000D
:0803F70003F703F7000000000A
:0803F80003F803F80000000007
:0803F90003F903F90000000004
:0803FA0003FA03FA0000000001
:0803FB0003FB03FB00000000FE
:0803FC0003FC03FC00000000FB
:0803FD0003FD03FD00000000F8
:0803FE0003FE03FE00000000F5
:0803FF0003FF03FF00000000F2
:080400000400040000000000EC
:080401000401040100000000E9
:080402000402040200000000E6
:080403000403040300000000E3
:080404000404040400000000E0
:080405000405040500000000DD
:080406000406040600000000DA
:080407000407040700000000D7
:080408000408040800000000D4
:080409000409040900000000D1
:08040A00040A040A00000000CE
:08040B00040B040B00000000CB
:08040C00040C040C00000000C8
:08040D00040D040D00000000C5
:08040E00040E040E00000000C2
:08040F00040F040F00000000BF
:080410000410041000000000BC
:080411000411041100000000B9
:080412000412041200000000B6
:080413000413041300000000B3
:080414000414041400000000B0
:080415000415041500000000AD
:080416000416041600000000AA
:080417000417041700000000A7
:080418000418041800000000A4
:080419000419041900000000A1
:08041A00041A041A000000009E
:08041B00041B041B000000009B
:08041C00041C041C0000000098
:08041D00041D041D0000000095
:08041E00041E041E0000000092
:08041F00041F041F000000008F
:0804200004200420000000008C
:08042100042104210000000089
:08042200042204220000000086
:08042300042304230000000083
:08042400042404240000000080
:0804250004250425000000007D
:0804260004260426000000007A
:08042700042704270000000077
:08042800042804280000000074
:08042900042904290000000071
:08042A00042A042A000000006E
:08042B00042B042B000000006B
:08042C00042C042C0000000068
:08042D00042D042D0000000065
:08042E00042E042E0000000062
:08042F00042F042F000000005F
:0804300004300430000000005C
:08043100043104310000000059
:08043200043204320000000056
:08043300043304330000000053
:08043400043404340000000050
:0804350004350435000000004D
:0804360004360436000000004A
:08043700043704370000000047
:08043800043804380000000044
:08043900043904390000000041
:08043A00043A043A000000003E
:08043B00043B043B000000003B
:08043C00043C043C0000000038
:08043D00043D043D0000000035
:08043E00043E043E0000000032
:08043F00043F043F000000002F
:0804400004400440000000002C
:08044100044104410000000029
:08044200044204420000000026
:08044300044304430000000023
:08044400044404440000000020
:0804450004450445000000001D
:0804460004460446000000001A
:08044700044704470000000017
:08044800044804480000000014
:08044900044904490000000011
:08044A00044A044A000000000E
:08044B00044B044B000000000B
:08044C00044C044C0000000008
:08044D00044D044D0000000005
:08044E00044E044E0000000002
:08044F00044F044F00000000FF
:080450000450045000000000FC
:080451000451045100000000F9
:080452000452045200000000F6
:080453000453045300000000F3
:080454000454045400000000F0
:080455000455045500000000ED
:080456000456045600000000EA
:080457000457045700000000E7
:080458000458045800000000E4
:080459000459045900000000E1
:08045A00045A045A00000000DE
:08045B00045B045B00000000DB
:08045C00045C045C00000000D8
:08045D00045D045D00000000D5
:08045E00045E045E00000000D2
:08045F00045F045F00000000CF
:080460000460046000000000CC
:080461000461046100000000C9
:080462000462046200000000C6
:080463000463046300000000C3
:080464000464046400000000C0
:080465000465046500000000BD
:080466000466046600000000BA
:080467000467046700000000B7
:080468000468046800000000B4
:080469000469046900000000B1
:08046A00046A046A00000000AE
:08046B00046B046B00000000AB
:08046C00046C046C00000000A8
:08046D00046D046D00000000A5
:08046E00046E046E00000000A2
:08046F00046F046F000000009F
:0804700004700470000000009C
:08047100047104710000000099
:08047200047204720000000096
:08047300047304730000000093
:08047400047404740000000090
:0804750004750475000000008D
:0804760004760476000000008A
:08047700047704770000000087
:08047800047804780000000084
:08047900047904790000000081
:08047A00047A047A000000007E
:08047B00047B047B000000007B
:08047C00047C047C0000000078
:08047D00047D047D0000000075
:08047E00047E047E0000000072
:08047F00047F047F000000006F
:0804800004800480000000006C
:08048100048104810000000069
:08048200048204820000000066
:08048300048304830000000063
:08048400048404840000000060
:0804850004850485000000005D
:0804860004860486000000005A
:08048700048704870000000057
:08048800048804880000000054
:08048900048904890000000051
:08048A00048A048A000000004E
:08048B00048B048B000000004B
:08048C00048C048C0000000048
:08048D00048D048D0000000045
:08048E00048E048E0000000042
:08048F00048F048F000000003F
:0804900004900490000000003C
:08049100049104910000000039
:08049200049204920000000036
:08049300049304930000000033
:08049400049404940000000030
:0804950004950495000000002D
:0804960004960496000000002A
:08049700049704970000000027
:08049800049804980000000024
:08049900049904990000000021
:08049A00049A049A000000001E
:08049B00049B049B000000001B
:08049C00049C049C0000000018
:08049D00049D049D0000000015
:08049E00049E049E0000000012
:08049F00049F049F000000000F
:0804A00004A004A0000000000C
:0804A10004A104A10000000009
:0804A20004A204A20000000006
:0804A30004A304A30000000003
:0804A40004A404A40000000000
:0804A50004A504A500000000FD
:0804A60004A604A600000000FA
:0804A70004A704A700000000F7
:0804A80004A804A800000000F4
:0804A90004A904A900000000F1
:0804AA0004AA04AA00000000EE
:0804AB0004AB04AB00000000EB
:0804AC0004AC04AC00000000E8
:0804AD0004AD04AD00000000E5
:0804AE0004AE04AE00000000E2
:0804AF0004AF04AF00000000DF
:0804B00004B004B000000000DC
:0804B10004B104B100000000D9
:0804B20004B204B200000000D6
:0804B30004B304B300000000D3
:0804B40004B404B400000000D0
:0804B50004B504B500000000CD
:0804B60004B604B600000000CA
:0804B70004B704B700000000C7
:0804B80004B804B800000000C4
:0804B90004B904B900000000C1
:0804BA0004BA04BA00000000BE
:0804BB0004BB04BB00000000BB
:0804BC0004BC04BC00000000B8
:0804BD0004BD04BD00000000B5
:0804BE0004BE04BE00000000B2
:0804BF0004BF04BF00000000AF
:0804C00004C004C000000000AC
:0804C10004C104C100000000A9
:0804C20004C204C200000000A6
:0804C30004C304C300000000A3
:0804C40004C404C400000000A0
:0804C50004C504C5000000009D
:0804C60004C604C6000000009A
:0804C70004C704C70000000097
:0804C80004C804C80000000094
:0804C90004C904C90000000091
:0804CA0004CA04CA000000008E
:0804CB0004CB04CB000000008B
:0804CC0004CC04CC0000000088
:0804CD0004CD04CD0000000085
:0804CE0004CE04CE0000000082
:0804CF0004CF04CF000000007F
:0804D00004D004D0000000007C
:0804D10004D104D10000000079
:0804D20004D204D20000000076
:0804D30004D304D30000000073
:0804D40004D404D40000000070
:0804D50004D504D5000000006D
:0804D60004D604D6000000006A
:0804D70004D704D70000000067
:0804D80004D804D80000000064
:0804D90004D904D90000000061
:0804DA0004DA04DA000000005E
:0804DB0004DB04DB000000005B
:0804DC0004DC04DC0000000058
:0804DD0004DD04DD0000000055
:0804DE0004DE04DE0000000052
:0804DF0004DF04DF000000004F
:0804E00004E004E0000000004C
:0804E10004E104E10000000049
:0804E20004E204E20000000046
:0804E30004E304E30000000043
:0804E40004E404E40000000040
:0804E50004E504E5000000003D
:0804E60004E604E6000000003A
:0804E70004E704E70000000037
:0804E80004E804E80000000034
:0804E90004E904E90000000031
:0804EA0004EA04EA000000002E
:0804EB0004EB04EB000000002B
:0804EC0004EC04EC0000000028
:0804ED0004ED04ED0000000025
:0804EE0004EE04EE0000000022
:0804EF0004EF04EF000000001F
:0804F00004F004F0000000001C
:0804F10004F104F10000000019
:0804F20004F204F20000000016
:0804F30004F304F30000000013
:0804F40004F404F40000000010
:0804F50004F504F5000000000D
:0804F60004F604F6000000000A
:0804F70004F704F70000000007
:0804F80004F804F80000000004
:0804F90004F904F90000000001
:0804FA0004FA04FA00000000FE
:0804FB0004FB04FB00000000FB
:0804FC0004FC04FC00000000F8
:0804FD0004FD04FD00000000F5
:0804FE0004FE04FE00000000F2
:0804FF0004FF04FF00000000EF
:080500000500050000000000E9
:080501000501050100000000E6
:080502000502050200000000E3
:080503000503050300000000E0
:080504000504050400000000DD
:080505000505050500000000DA
:080506000506050600000000D7
:080507000507050700000000D4
:080508000508050800000000D1
:080509000509050900000000CE
:08050A00050A050A00000000CB
:08050B00050B050B00000000C8
:08050C00050C050C00000000C5
:08050D00050D050D00000000C2
:08050E00050E050E00000000BF
:08050F00050F050F00000000BC
:080510000510051000000000B9
:080511000511051100000000B6
:080512000512051200000000B3
:080513000513051300000000B0
:080514000514051400000000AD
:080515000515051500000000AA
:080516000516051600000000A7
:080517000517051700000000A4
:080518000518051800000000A1
:0805190005190519000000009E
:08051A00051A051A000000009B
:08051B00051B051B0000000098
:08051C00051C051C0000000095
:08051D00051D051D0000000092
:08051E00051E051E000000008F
:08051F00051F051F000000008C
:08052000052005200000000089
:08052100052105210000000086
:08052200052205220000000083
:08052300052305230000000080
:0805240005240524000000007D
:0805250005250525000000007A
:08052600052605260000000077
:08052700052705270000000074
:08052800052805280000000071
:0805290005290529000000006E
:08052A00052A052A000000006B
:08052B00052B052B0000000068
:08052C00052C052C0000000065
:08052D00052D052D0000000062
:08052E00052E052E000000005F
:08052F00052F052F000000005C
:08053000053005300000000059
:08053100053105310000000056
:08053200053205320000000053
:08053300053305330000000050
:0805340005340534000000004D
:0805350005350535000000004A
:08053600053605360000000047
:08053700053705370000000044
:08053800053805380000000041
:0805390005390539000000003E
:08053A00053A053A000000003B
:08053B00053B053B0000000038
:08053C00053C053C0000000035
:08053D00053D053D0000000032
:08053E00053E053E000000002F
:08053F00053F053F000000002C
:08054000054005400000000029
:08054100054105410000000026
:08054200054205420000000023
:08054300054305430000000020
:0805440005440544000000001D
:0805450005450545000000001A
:08054600054605460000000017
:08054700054705470000000014
:08054800054805480000000011
:0805490005490549000000000E
:08054A00054A054A000000000B
:08054B00054B054B0000000008
:08054C00054C054C0000000005
:08054D00054D054D0000000002
:08054E00054E054E00000000FF
:08054F00054F054F00000000FC
:080550000550055000000000F9
:080551000551055100000000F6
:080552000552055200000000F3
:080553000553055300000000F0
:080554000554055400000000ED
:080555000555055500000000EA
:080556000556055600000000E7
:080557000557055700000000E4
:080558000558055800000000E1
:080559000559055900000000DE
:08055A00055A055A00000000DB
:08055B00055B055B00000000D8
:08055C00055C055C00000000D5
:08055D00055D055D00000000D2
:08055E00055E055E00000000CF
:08055F00055F055F00000000CC
:080560000560056000000000C9
:080561000561056100000000C6
:080562000562056200000000C3
:080563000563056300000000C0
:080564000564056400000000BD
:080565000565056500000000BA
:080566000566056600000000B7
:080567000567056700000000B4
:080568000568056800000000B1
:080569000569056900000000AE
:08056A00056A056A00000000AB
:08056B00056B056B00000000A8
:08056C00056C056C00000000A5
:08056D00056D056D00000000A2
:08056E00056E056E000000009F
:08056F00056F056F000000009C
:08057000057005700000000099
:08057100057105710000000096
:08057200057205720000000093
:08057300057305730000000090
:0805740005740574000000008D
:0805750005750575000000008A
:08057600057605760000000087
:08057700057705770000000084
:08057800057805780000000081
:0805790005790579000000007E
:08057A00057A057A000000007B
:08057B00057B057B0000000078
:08057C00057C057C0000000075
:08057D00057D057D0000000072
:08057E00057E057E000000006F
:08057F00057F057F000000006C
:08058000058005800000000069
:08058100058105810000000066
:08058200058205820000000063
:08058300058305830000000060
:0805840005840584000000005D
:0805850005850585000000005A
:08058600058605860000000057
:08058700058705870000000054
:08058800058805880000000051
:0805890005890589000000004E
:08058A00058A058A000000004B
:08058B00058B058B0000000048
:08058C00058C058C0000000045
:08058D00058D058D0000000042
:08058E00058E058E000000003F
:08058F00058F058F000000003C
:08059000059005900000000039
:08059100059105910000000036
:08059200059205920000000033
:08059300059305930000000030
:0805940005940594000000002D
:0805950005950595000000002A
:08059600059605960000000027
:08059700059705970000000024
:08059800059805980000000021
:0805990005990599000000001E
:08059A00059A059A000000001B
:08059B00059B059B0000000018
:08059C00059C059C0000000015
:08059D00059D059D0000000012
:08059E00059E059E000000000F
:08059F00059F059F000000000C
:0805A00005A005A00000000009
:0805A10005A105A10000000006
:0805A20005A205A20000000003
:0805A30005A305A30000000000
:0805A40005A405A400000000FD
:0805A50005A505A500000000FA
:0805A60005A605A600000000F7
:0805A70005A705A700000000F4
:0805A80005A805A800000000F1
:0805A90005A905A900000000EE
:0805AA0005AA05AA00000000EB
:0805AB0005AB05AB00000000E8
:0805AC0005AC05AC00000000E5
:0805AD0005AD05AD00000000E2
:0805AE0005AE05AE00000000DF
:0805AF0005AF05AF00000000DC
:0805B00005B005B000000000D9
:0805B10005B105B100000000D6
:0805B20005B205B200000000D3
:0805B30005B305B300000000D0
:0805B40005B405B400000000CD
:0805B50005B505B500000000CA
:0805B60005B605B600000000C7
:0805B70005B705B700000000C4
:0805B80005B805B800000000C1
:0805B90005B905B900000000BE
:0805BA0005BA05BA00000000BB
:0805BB0005BB05BB00000000B8
:0805BC0005BC05BC00000000B5
:0805BD0005BD05BD00000000B2
:0805BE0005BE05BE00000000AF
:0805BF0005BF05BF00000000AC
:0805C00005C005C000000000A9
:0805C10005C105C100000000A6
:0805C20005C205C200000000A3
:0805C30005C305C300000000A0
:0805C40005C405C4000000009D
:0805C50005C505C5000000009A
:0805C60005C605C60000000097
:0805C70005C705C70000000094
:0805C80005C805C80000000091
:0805C90005C905C9000000008E
:0805CA0005CA05CA000000008B
:0805CB0005CB05CB0000000088
:0805CC0005CC05CC0000000085
:0805CD0005CD05CD0000000082
:0805CE0005CE05CE000000007F
:0805CF0005CF05CF000000007C
:0805D00005D005D00000000079
:0805D10005D105D10000000076
:0805D20005D205D20000000073
:0805D30005D305D30000000070
:0805D40005D405D4000000006D
:0805D50005D505D5000000006A
:0805D60005D605D60000000067
:0805D70005D705D70000000064
:0805D80005D805D80000000061
:0805D90005D905D9000000005E
:0805DA0005DA05DA000000005B
:0805DB0005DB05DB0000000058
:0805DC0005DC05DC0000000055
:0805DD0005DD05DD0000000052
:0805DE0005DE05DE000000004F
:0805DF0005DF05DF000000004C
:0805E00005E005E00000000049
:0805E10005E105E10000000046
:0805E20005E205E20000000043
:0805E30005E305E30000000040
:0805E40005E405E4000000003D
:0805E50005E505E5000000003A
:0805E60005E605E60000000037
:0805E70005E705E70000000034
:0805E80005E805E80000000031
:0805E90005E905E9000000002E
:0805EA0005EA05EA000000002B
:0805EB0005EB05EB0000000028
:0805EC0005EC05EC0000000025
:0805ED0005ED05ED0000000022
:0805EE0005EE05EE000000001F
:0805EF0005EF05EF000000001C
:0805F00005F005F00000000019
:0805F10005F105F10000000016
:0805F20005F205F20000000013
:0805F30005F305F30000000010
:0805F40005F405F4000000000D
:0805F50005F505F5000000000A
:0805F60005F605F60000000007
:0805F70005F705F70000000004
:0805F80005F805F80000000001
:0805F90005F905F900000000FE
:0805FA0005FA05FA00000000FB
:0805FB0005FB05FB00000000F8
:0805FC0005FC05FC00000000F5
:0805FD0005FD05FD00000000F2
:0805FE0005FE05FE00000000EF
:0805FF0005FF05FF00000000EC
:080600000600060000000000E6
:080601000601060100000000E3
:080602000602060200000000E0
:080603000603060300000000DD
:080604000604060400000000DA
:080605000605060500000000D7
:080606000606060600000000D4
:080607000607060700000000D1
:080608000608060800000000CE
:080609000609060900000000CB
:08060A00060A060A00000000C8
:08060B00060B060B00000000C5
:08060C00060C060C00000000C2
:08060D00060D060D00000000BF
:08060E00060E060E00000000BC
:08060F00060F060F00000000B9
:080610000610061000000000B6
:080611000611061100000000B3
:080612000612061200000000B0
:080613000613061300000000AD
:080614000614061400000000AA
:080615000615061500000000A7
:080616000616061600000000A4
:080617000617061700000000A1
:0806180006180618000000009E
:0806190006190619000000009B
:08061A00061A061A0000000098
:08061B00061B061B0000000095
:08061C00061C061C0000000092
:08061D00061D061D000000008F
:08061E00061E061E000000008C
:08061F00061F061F0000000089
:08062000062006200000000086
:08062100062106210000000083
:08062200062206220000000080
:0806230006230623000000007D
:0806240006240624000000007A
:08062500062506250000000077
:08062600062606260000000074
:08062700062706270000000071
:0806280006280628000000006E
:0806290006290629000000006B
:08062A00062A062A0000000068
:08062B00062B062B0000000065
:08062C00062C062C0000000062
:08062D00062D062D000000005F
:08062E00062E062E000000005C
:08062F00062F062F0000000059
:08063000063006300000000056
:08063100063106310000000053
:08063200063206320000000050
:0806330006330633000000004D
:0806340006340634000000004A
:08063500063506350000000047
:08063600063606360000000044
:08063700063706370000000041
:0806380006380638000000003E
:0806390006390639000000003B
:08063A00063A063A0000000038
:08063B00063B063B0000000035
:08063C00063C063C0000000032
:08063D00063D063D000000002F
:08063E00063E063E000000002C
:08063F00063F063F0000000029
:08064000064006400000000026
:08064100064106410000000023
:08064200064206420000000020
:0806430006430643000000001D
:0806440006440644000000001A
:08064500064506450000000017
:08064600064606460000000014
:08064700064706470000000011
:0806480006480648000000000E
:0806490006490649000000000B
:08064A00064A064A0000000008
:08064B00064B064B0000000005
:08064C00064C064C0000000002
:08064D00064D064D00000000FF
:08064E00064E064E00000000FC
:08064F00064F064F00000000F9
:080650000650065000000000F6
:080651000651065100000000F3
:080652000652065200000000F0
:080653000653065300000000ED
:080654000654065400000000EA
:080655000655065500000000E7
:080656000656065600000000E4
:080657000657065700000000E1
:080658000658065800000000DE
:080659000659065900000000DB
:08065A00065A065A00000000D8
:08065B00065B065B00000000D5
:08065C00065C065C00000000D2
:08065D00065D065D00000000CF
:08065E00065E065E00000000CC
:08065F00065F065F00000000C9
:080660000660066000000000C6
:080661000661066100000000C3
:080662000662066200000000C0
:080663000663066300000000BD
:080664000664066400000000BA
:080665000665066500000000B7
:080666000666066600000000B4
:080667000667066700000000B1
:080668000668066800000000AE
:080669000669066900000000AB
:08066A00066A066A00000000A8
:08066B00066B066B00000000A5
:08066C00066C066C00000000A2
:08066D00066D066D000000009F
:08066E00066E066E000000009C
:08066F00066F066F0000000099
:08067000067006700000000096
:08067100067106710000000093
:08067200067206720000000090
:0806730006730673000000008D
:0806740006740674000000008A
:08067500067506750000000087
:08067600067606760000000084
:08067700067706770000000081
:0806780006780678000000007E
:0806790006790679000000007B
:08067A00067A067A0000000078
:08067B00067B067B0000000075
:08067C00067C067C0000000072
:08067D00067D067D000000006F
:08067E00067E067E000000006C
:08067F00067F067F0000000069
:08068000068006800000000066
:08068100068106810000000063
:08068200068206820000000060
:0806830006830683000000005D
:0806840006840684000000005A
:08068500068506850000000057
:08068600068606860000000054
:08068700068706870000000051
:0806880006880688000000004E
:0806890006890689000000004B
:08068A00068A068A0000000048
:08068B00068B068B0000000045
:08068C00068C068C0000000042
:08068D00068D068D000000003F
:08068E00068E068E000000003C
:08068F00068F068F0000000039
:08069000069006900000000036
:08069100069106910000000033
:08069200069206920000000030
:0806930006930693000000002D
:0806940006940694000000002A
:08069500069506950000000027
:08069600069606960000000024
:08069700069706970000000021
:0806980006980698000000001E
:0806990006990699000000001B
:08069A00069A069A0000000018
:08069B00069B069B0000000015
:08069C00069C069C0000000012
:08069D00069D069D000000000F
:08069E00069E069E000000000C
:08069F00069F069F0000000009
:0806A00006A006A00000000006
:0806A10006A106A10000000003
:0806A20006A206A20000000000
:0806A30006A306A300000000FD
:0806A40006A406A400000000FA
:0806A50006A506A500000000F7
:0806A60006A606A600000000F4
:0806A70006A706A700000000F1
:0806A80006A806A800000000EE
:0806A90006A906A900000000EB
:0806AA0006AA06AA00000000E8
:0806AB0006AB06AB00000000E5
:0806AC0006AC06AC00000000E2
:0806AD0006AD06AD00000000DF
:0806AE0006AE06AE00000000DC
:0806AF0006AF06AF00000000D9
:0806B00006B006B000000000D6
:0806B10006B106B100000000D3
:0806B20006B206B200000000D0
:0806B30006B306B300000000CD
:0806B40006B406B400000000CA
:0806B50006B506B500000000C7
:0806B60006B606B600000000C4
:0806B70006B706B700000000C1
:0806B80006B806B800000000BE
:0806B90006B906B900000000BB
:0806BA0006BA06BA00000000B8
:0806BB0006BB06BB00000000B5
:0806BC0006BC06BC00000000B2
:0806BD0006BD06BD00000000AF
:0806BE0006BE06BE00000000AC
:0806BF0006BF06BF00000000A9
:0806C00006C006C000000000A6
:0806C10006C106C100000000A3
:0806C20006C206C200000000A0
:0806C30006C306C3000000009D
:0806C40006C406C4000000009A
:0806C50006C506C50000000097
:0806C60006C606C60000000094
:0806C70006C706C70000000091
:0806C80006C806C8000000008E
:0806C90006C906C9000000008B
:0806CA0006CA06CA0000000088
:0806CB0006CB06CB0000000085
:0806CC0006CC06CC0000000082
:0806CD0006CD06CD000000007F
:0806CE0006CE06CE000000007C
:0806CF0006CF06CF0000000079
:0806D00006D006D00000000076
:0806D10006D106D10000000073
:0806D20006D206D20000000070
:0806D30006D306D3000000006D
:0806D40006D406D4000000006A
:0806D50006D506D50000000067
:0806D60006D606D60000000064
:0806D70006D706D70000000061
:0806D80006D806D8000000005E
:0806D90006D906D9000000005B
:0806DA0006DA06DA0000000058
:0806DB0006DB06DB0000000055
:0806DC0006DC06DC0000000052
:0806DD0006DD06DD000000004F
:0806DE0006DE06DE000000004C
:0806DF0006DF06DF0000000049
:0806E00006E006E00000000046
:0806E10006E106E10000000043
:0806E20006E206E20000000040
:0806E30006E306E3000000003D
:0806E40006E406E4000000003A
:0806E50006E506E50000000037
:0806E60006E606E60000000034
:0806E70006E706E70000000031
:0806E80006E806E8000000002E
:0806E90006E906E9000000002B
:0806EA0006EA06EA0000000028
:0806EB0006EB06EB0000000025
:0806EC0006EC06EC0000000022
:0806ED0006ED06ED000000001F
:0806EE0006EE06EE000000001C
:0806EF0006EF06EF0000000019
:0806F00006F006F00000000016
:0806F10006F106F10000000013
:0806F20006F206F20000000010
:0806F30006F306F3000000000D
:0806F40006F406F4000000000A
:0806F50006F506F50000000007
:0806F60006F606F60000000004
:0806F70006F706F70000000001
:0806F80006F806F800000000FE
:0806F90006F906F900000000FB
:0806FA0006FA06FA00000000F8
:0806FB0006FB06FB00000000F5
:0806FC0006FC06FC00000000F2
:0806FD0006FD06FD00000000EF
:0806FE0006FE06FE00000000EC
:0806FF0006FF06FF00000000E9
:080700000700070000000000E3
:080701000701070100000000E0
:080702000702070200000000DD
:080703000703070300000000DA
:080704000704070400000000D7
:080705000705070500000000D4
:080706000706070600000000D1
:080707000707070700000000CE
:080708000708070800000000CB
:080709000709070900000000C8
:08070A00070A070A00000000C5
:08070B00070B070B00000000C2
:08070C00070C070C00000000BF
:08070D00070D070D00000000BC
:08070E00070E070E00000000B9
:08070F00070F070F00000000B6
:080710000710071000000000B3
:080711000711071100000000B0
:080712000712071200000000AD
:080713000713071300000000AA
:080714000714071400000000A7
:080715000715071500000000A4
:080716000716071600000000A1
:0807170007170717000000009E
:0807180007180718000000009B
:08071900071907190000000098
:08071A00071A071A0000000095
:08071B00071B071B0000000092
:08071C00071C071C000000008F
:08071D00071D071D000000008C
:08071E00071E071E0000000089
:08071F00071F071F0000000086
:08072000072007200000000083
:08072100072107210000000080
:0807220007220722000000007D
:0807230007230723000000007A
:08072400072407240000000077
:08072500072507250000000074
:08072600072607260000000071
:0807270007270727000000006E
:0807280007280728000000006B
:08072900072907290000000068
:08072A00072A072A0000000065
:08072B00072B072B0000000062
:08072C00072C072C000000005F
:08072D00072D072D000000005C
:08072E00072E072E0000000059
:08072F00072F072F0000000056
:08073000073007300000000053
:08073100073107310000000050
:0807320007320732000000004D
:0807330007330733000000004A
:08073400073407340000000047
:08073500073507350000000044
:08073600073607360000000041
:0807370007370737000000003E
:0807380007380738000000003B
:08073900073907390000000038
:08073A00073A073A0000000035
:08073B00073B073B0000000032
:08073C00073C073C000000002F
:08073D00073D073D000000002C
:08073E00073E073E0000000029
:08073F00073F073F0000000026
:08074000074007400000000023
:08074100074107410000000020
:0807420007420742000000001D
:0807430007430743000000001A
:08074400074407440000000017
:08074500074507450000000014
:08074600074607460000000011
:0807470007470747000000000E
:0807480007480748000000000B
:08074900074907490000000008
:08074A00074A074A0000000005
:08074B00074B074B0000000002
:08074C00074C074C00000000FF
:08074D00074D074D00000000FC
:08074E00074E074E00000000F9
:08074F00074F074F00000000F6
:080750000750075000000000F3
:080751000751075100000000F0
:080752000752075200000000ED
:080753000753075300000000EA
:080754000754075400000000E7
:080755000755075500000000E4
:080756000756075600000000E1
:080757000757075700000000DE
:080758000758075800000000DB
:080759000759075900000000D8
:08075A00075A075A00000000D5
:08075B00075B075B00000000D2
:08075C00075C075C00000000CF
:08075D00075D075D00000000CC
:08075E00075E075E00000000C9
:08075F00075F075F00000000C6
:080760000760076000000000C3
:080761000761076100000000C0
:080762000762076200000000BD
:080763000763076300000000BA
:080764000764076400000000B7
:080765000765076500000000B4
:080766000766076600000000B1
:080767000767076700000000AE
:080768000768076800000000AB
:080769000769076900000000A8
:08076A00076A076A00000000A5
:08076B00076B076B00000000A2
:08076C00076C076C000000009F
:08076D00076D076D000000009C
:08076E00076E076E0000000099
:08076F00076F076F0000000096
:08077000077007700000000093
:08077100077107710000000090
:0807720007720772000000008D
:0807730007730773000000008A
:08077400077407740000000087
:08077500077507750000000084
:08077600077607760000000081
:0807770007770777000000007E
:0807780007780778000000007B
:08077900077907790000000078
:08077A00077A077A0000000075
:08077B00077B077B0000000072
:08077C00077C077C000000006F
:08077D00077D077D000000006C
:08077E00077E077E0000000069
:08077F00077F077F0000000066
:08078000078007800000000063
:08078100078107810000000060
:0807820007820782000000005D
:0807830007830783000000005A
:08078400078407840000000057
:08078500078507850000000054
:08078600078607860000000051
:0807870007870787000000004E
:0807880007880788000000004B
:08078900078907890000000048
:08078A00078A078A0000000045
:08078B00078B078B0000000042
:08078C00078C078C000000003F
:08078D00078D078D000000003C
:08078E00078E078E0000000039
:08078F00078F078F0000000036
:08079000079007900000000033
:08079100079107910000000030
:0807920007920792000000002D
:0807930007930793000000002A
:08079400079407940000000027
:08079500079507950000000024
:08079600079607960000000021
:0807970007970797000000001E
:0807980007980798000000001B
:08079900079907990000000018
:08079A00079A079A0000000015
:08079B00079B079B0000000012
:08079C00079C079C000000000F
:08079D00079D079D000000000C
:08079E00079E079E0000000009
:08079F00079F079F0000000006
:0807A00007A007A00000000003
:0807A10007A107A10000000000
:0807A20007A207A200000000FD
:0807A30007A307A300000000FA
:0807A40007A407A400000000F7
:0807A50007A507A500000000F4
:0807A60007A607A600000000F1
:0807A70007A707A700000000EE
:0807A80007A807A800000000EB
:0807A90007A907A900000000E8
:0807AA0007AA07AA00000000E5
:0807AB0007AB07AB00000000E2
:0807AC0007AC07AC00000000DF
:0807AD0007AD07AD00000000DC
:0807AE0007AE07AE00000000D9
:0807AF0007AF07AF00000000D6
:0807B00007B007B000000000D3
:0807B10007B107B100000000D0
:0807B20007B207B200000000CD
:0807B30007B307B300000000CA
:0807B40007B407B400000000C7
:0807B50007B507B500000000C4
:0807B60007B607B600000000C1
:0807B70007B707B700000000BE
:0807B80007B807B800000000BB
:0807B90007B907B900000000B8
:0807BA0007BA07BA00000000B5
:0807BB0007BB07BB00000000B2
:0807BC0007BC07BC00000000AF
:0807BD0007BD07BD00000000AC
:0807BE0007BE07BE00000000A9
:0807BF0007BF07BF00000000A6
:0807C00007C007C000000000A3
:0807C10007C107C100000000A0
:0807C20007C207C2000000009D
:0807C30007C307C3000000009A
:0807C40007C407C40000000097
:0807C50007C507C50000000094
:0807C60007C607C60000000091
:0807C70007C707C7000000008E
:0807C80007C807C8000000008B
:0807C90007C907C90000000088
:0807CA0007CA07CA0000000085
:0807CB0007CB07CB0000000082
:0807CC0007CC07CC000000007F
:0807CD0007CD07CD000000007C
:0807CE0007CE07CE0000000079
:0807CF0007CF07CF0000000076
:0807D00007D007D00000000073
:0807D10007D107D10000000070
:0807D20007D207D2000000006D
:0807D30007D307D3000000006A
:0807D40007D407D40000000067
:0807D50007D507D50000000064
:0807D60007D607D60000000061
:0807D70007D707D7000000005E
:0807D80007D807D8000000005B
:0807D90007D907D90000000058
:0807DA0007DA07DA0000000055
:0807DB0007DB07DB0000000052
:0807DC0007DC07DC000000004F
:0807DD0007DD07DD000000004C
:0807DE0007DE07DE0000000049
:0807DF0007DF07DF0000000046
:0807E00007E007E00000000043
:0807E10007E107E10000000040
:0807E20007E207E2000000003D
:0807E30007E307E3000000003A
:0807E40007E407E40000000037
:0807E50007E507E50000000034
:0807E60007E607E60000000031
:0807E70007E707E7000000002E
:0807E80007E807E8000000002B
:0807E90007E907E90000000028
:0807EA0007EA07EA0000000025
:0807EB0007EB07EB0000000022
:0807EC0007EC07EC000000001F
:0807ED0007ED07ED000000001C
:0807EE0007EE07EE0000000019
:0807EF0007EF07EF0000000016
:0807F00007F007F00000000013
:0807F10007F107F10000000010
:0807F20007F207F2000000000D
:0807F30007F307F3000000000A
:0807F40007F407F40000000007
:0807F50007F507F50000000004
:0807F60007F607F60000000001
:0807F70007F707F700000000FE
:0807F80007F807F800000000FB
:0807F90007F907F900000000F8
:0807FA0007FA07FA00000000F5
:0807FB0007FB07FB00000000F2
:0807FC0007FC07FC00000000EF
:0807FD0007FD07FD00000000EC
:0807FE0007FE07FE00000000E9
:0807FF0007FF07FF00000000E6
:080800000800080000000000E0
:080801000801080100000000DD
:080802000802080200000000DA
:080803000803080300000000D7
:080804000804080400000000D4
:080805000805080500000000D1
:080806000806080600000000CE
:080807000807080700000000CB
:080808000808080800000000C8
:080809000809080900000000C5
:08080A00080A080A00000000C2
:08080B00080B080B00000000BF
:08080C00080C080C00000000BC
:08080D00080D080D00000000B9
:08080E00080E080E00000000B6
:08080F00080F080F00000000B3
:080810000810081000000000B0
:080811000811081100000000AD
:080812000812081200000000AA
:080813000813081300000000A7
:080814000814081400000000A4
:080815000815081500000000A1
:0808160008160816000000009E
:0808170008170817000000009B
:08081800081808180000000098
:08081900081908190000000095
:08081A00081A081A0000000092
:08081B00081B081B000000008F
:08081C00081C081C000000008C
:08081D00081D081D0000000089
:08081E00081E081E0000000086
:08081F00081F081F0000000083
:08082000082008200000000080
:0808210008210821000000007D
:0808220008220822000000007A
:08082300082308230000000077
:08082400082408240000000074
:08082500082508250000000071
:0808260008260826000000006E
:0808270008270827000000006B
:08082800082808280000000068
:08082900082908290000000065
:08082A00082A082A0000000062
:08082B00082B082B000000005F
:08082C00082C082C000000005C
:08082D00082D082D0000000059
:08082E00082E082E0000000056
:08082F00082F082F0000000053
:08083000083008300000000050
:0808310008310831000000004D
:0808320008320832000000004A
:08083300083308330000000047
:08083400083408340000000044
:08083500083508350000000041
:0808360008360836000000003E
:0808370008370837000000003B
:08083800083808380000000038
:08083900083908390000000035
:08083A00083A083A0000000032
:08083B00083B083B000000002F
:08083C00083C083C000000002C
:08083D00083D083D0000000029
:08083E00083E083E0000000026
:08083F00083F083F0000000023
:08084000084008400000000020
:0808410008410841000000001D
:0808420008420842000000001A
:08084300084308430000000017
:08084400084408440000000014
:08084500084508450000000011
:0808460008460846000000000E
:0808470008470847000000000B
:08084800084808480000000008
:08084900084908490000000005
:08084A00084A084A0000000002
:08084B00084B084B00000000FF
:08084C00084C084C00000000FC
:08084D00084D084D00000000F9
:08084E00084E084E00000000F6
:08084F00084F084F00000000F3
:080850000850085000000000F0
:080851000851085100000000ED
:080852000852085200000000EA
:080853000853085300000000E7
:080854000854085400000000E4
:080855000855085500000000E1
:080856000856085600000000DE
:080857000857085700000000DB
:080858000858085800000000D8
:080859000859085900000000D5
:08085A00085A085A00000000D2
:08085B00085B085B00000000CF
:08085C00085C085C00000000CC
:08085D00085D085D00000000C9
:08085E00085E085E00000000C6
:08085F00085F085F00000000C3
:080860000860086000000000C0
:080861000861086100000000BD
:080862000862086200000000BA
:080863000863086300000000B7
:080864000864086400000000B4
:080865000865086500000000B1
:080866000866086600000000AE
:080867000867086700000000AB
:080868000868086800000000A8
:080869000869086900000000A5
:08086A00086A086A00000000A2
:08086B00086B086B000000009F
:08086C00086C086C000000009C
:08086D00086D086D0000000099
:08086E00086E086E0000000096
:08086F00086F086F0000000093
:08087000087008700000000090
:0808710008710871000000008D
:0808720008720872000000008A
:08087300087308730000000087
:08087400087408740000000084
:08087500087508750000000081
:0808760008760876000000007E
:0808770008770877000000007B
:08087800087808780000000078
:08087900087908790000000075
:08087A00087A087A0000000072
:08087B00087B087B000000006F
:08087C00087C087C000000006C
:08087D00087D087D0000000069
:08087E00087E087E0000000066
:08087F00087F087F0000000063
:08088000088008800000000060
:0808810008810881000000005D
:0808820008820882000000005A
:08088300088308830000000057
:08088400088408840000000054
:08088500088508850000000051
:0808860008860886000000004E
:0808870008870887000000004B
:08088800088808880000000048
:08088900088908890000000045
:08088A00088A088A0000000042
:08088B00088B088B000000003F
:08088C00088C088C000000003C
:08088D00088D088D0000000039
:08088E00088E088E0000000036
:08088F00088F088F0000000033
:08089000089008900000000030
:0808910008910891000000002D
:0808920008920892000000002A
:08089300089308930000000027
:08089400089408940000000024
:08089500089508950000000021
:0808960008960896000000001E
:0808970008970897000000001B
:08089800089808980000000018
:08089900089908990000000015
:08089A00089A089A0000000012
:08089B00089B089B000000000F
:08089C00089C089C000000000C
:08089D00089D089D0000000009
:08089E00089E089E0000000006
:08089F00089F089F0000000003
:0808A00008A008A00000000000
:0808A10008A108A100000000FD
:0808A20008A208A200000000FA
:0808A30008A308A300000000F7
:0808A40008A408A400000000F4
:0808A50008A508A500000000F1
:0808A60008A608A600000000EE
:0808A70008A708A700000000EB
:0808A80008A808A800000000E8
:0808A90008A908A900000000E5
:0808AA0008AA08AA00000000E2
:0808AB0008AB08AB00000000DF
:0808AC0008AC08AC00000000DC
:0808AD0008AD08AD00000000D9
:0808AE0008AE08AE00000000D6
:0808AF0008AF08AF00000000D3
:0808B00008B008B000000000D0
:0808B10008B108B100000000CD
:0808B20008B208B200000000CA
:0808B30008B308B300000000C7
:0808B40008B408B400000000C4
:0808B50008B508B500000000C1
:0808B60008B608B600000000BE
:0808B70008B708B700000000BB
:0808B80008B808B800000000B8
:0808B90008B908B900000000B5
:0808BA0008BA08BA00000000B2
:0808BB0008BB08BB00000000AF
:0808BC0008BC08BC00000000AC
:0808BD0008BD08BD00000000A9
:0808BE0008BE08BE00000000A6
:0808BF0008BF08BF00000000A3
:0808C00008C008C000000000A0
:0808C10008C108C1000000009D
:0808C20008C208C2000000009A
:0808C30008C308C30000000097
:0808C40008C408C40000000094
:0808C50008C508C50000000091
:0808C60008C608C6000000008E
:0808C70008C708C7000000008B
:0808C80008C808C80000000088
:0808C90008C908C90000000085
:0808CA0008CA08CA0000000082
:0808CB0008CB08CB000000007F
:0808CC0008CC08CC000000007C
:0808CD0008CD08CD0000000079
:0808CE0008CE08CE0000000076
:0808CF0008CF08CF0000000073
:0808D00008D008D00000000070
:0808D10008D108D1000000006D
:0808D20008D208D2000000006A
:0808D30008D308D30000000067
:0808D40008D408D40000000064
:0808D50008D508D50000000061
:0808D60008D608D6000000005E
:0808D70008D708D7000000005B
:0808D80008D808D80000000058
:0808D90008D908D90000000055
:0808DA0008DA08DA0000000052
:0808DB0008DB08DB000000004F
:0808DC0008DC08DC000000004C
:0808DD0008DD08DD0000000049
:0808DE0008DE08DE0000000046
:0808DF0008DF08DF0000000043
:0808E00008E008E00000000040
:0808E10008E108E1000000003D
:0808E20008E208E2000000003A
:0808E30008E308E30000000037
:0808E40008E408E40000000034
:0808E50008E508E50000000031
:0808E60008E608E6000000002E
:0808E70008E708E7000000002B
:0808E80008E808E80000000028
:0808E90008E908E90000000025
:0808EA0008EA08EA0000000022
:0808EB0008EB08EB000000001F
:0808EC0008EC08EC000000001C
